:100000003FC059C058C057C056C055C0C7C753C0DD
:1000100052C033C950C04FC04EC04DC04CC04BC081
:100020004AC049C048C00000000037003400310019
:1000300000000000380035003200000000003600EB
:100040003300300004040404040404040202020225
:10005000020203030303030301020408102040808B
:100060000102040810200102040810200000000012
:100070000000000000030405000000000000000074
:1000800011241FBECFE5D4E0DEBFCDBF11E0A0E656
:10009000B0E0E0ECFAE102C005900D92AC31B1079E
:1000A000D9F711E0ACE1B1E001C01D92A139B1076F
:1000B000E1F7F2DA03CDA4CFAEE0B0E0E1E6F0E0A4
:1000C000D4CC0D891E8986E08C831A8309838FEF37
:1000D0009FE79E838D839E01275E3F4FCE01019651
:1000E0006F89788DA90109D02F813885020F131FE0
:1000F000F80110822E96E4E0D4CCABE0B0E0E2E868
:10010000F0E0A5CC3C012B015A01FC0117821682BC
:10011000838181FD03C06FEF7FEFB9C19AE0892E23
:100120001E010894211C311CF3012381F20123FDDF
:10013000859123FF81912F01882309F4A5C1853280
:1001400039F423FD859123FF81912F01853221F41C
:1001500090E0B301B6D1E8CF982FFF24EE24992484
:10016000FFE1FF15D0F09B3269F09C3228F4903209
:1001700059F0933291F40EC09D3249F0903369F4F6
:1001800041E024C052E0F52A84E0F82A28C098E033
:10019000F92A25C0E0E1FE2A22C0F7FC29C0892FF8
:1001A00080538A3070F4F6FE05C0989C902C112480
:1001B000980E15C0E89CE02C1124E80EF0E2FF2A0E
:1001C0000EC09E3229F4F6FC5FC140E4F42A07C059
:1001D0009C3619F450E8F52A02C0983649F4F20129
:1001E00023FD959123FF91912F01992309F0B8CF19
:1001F000892F8554833018F08052833038F444E0DE
:1002000050E0A40EB51E5FE359830FC0933631F062
:10021000933779F0933509F052C01FC0F501808102
:10022000898342E050E0A40EB51E610101E010E0B8
:1002300011C0F501C080D180F6FC03C06FEF7FEFE5
:1002400002C0692D70E042E050E0A40EB51EC60168
:100250002DD18C015FE7F52213C0F501C080D1805C
:10026000F6FC03C06FEF7FEF02C0692D70E042E043
:1002700050E0A40EB51EC6010ED18C0150E8F52A3F
:10028000F3FE06C018C080E290E0B3011AD1EA94F0
:100290008E2D90E008171907B0F30DC0F601F7FC9A
:1002A0008591F7FE81916F0190E0B3010AD1E110D1
:1002B000EA94015010400115110581F7E2C094360F
:1002C00011F0993661F5F7FE08C0F5012081318102
:1002D0004281538184E090E00AC0F50180819181E0
:1002E0009C01442737FD4095542F82E090E0A80EF2
:1002F000B91E9FE6F92257FF09C0509540953095E9
:1003000021953F4F4F4F5F4FE0E8FE2ACA01B901E8
:10031000A1012AE030E001D1D82ED2183FC0953794
:1003200029F41F2D1F7E2AE030E01DC01F2D197FEC
:100330009F3661F0903720F4983509F0A5C00FC0C2
:10034000903739F0983709F09FC004C028E030E0BA
:100350000AC0106114FD146020E130E004C014FDF7
:10036000166020E132E017FF08C0F501608171815D
:100370008281938144E050E008C0F5018081918141
:10038000BC0180E090E042E050E0A40EB51EA10167
:10039000C4D0D82ED2188FE7F82EF122F6FE0BC06B
:1003A0005EEFF522D91438F4F4FE07C0F2FC05C064
:1003B0008FEEF82202C01D2D01C0192DF4FE0DC0D4
:1003C000FE01ED0DF11D8081803319F499EEF922C3
:1003D00008C01F5FF2FE05C003C08F2D867809F0AC
:1003E0001F5F0F2DF3FC13C0F0FE0EC01E1510F0A2
:1003F0009D2C0AC09D2C9E0C911A1E2D05C080E2DA
:1004000090E0B3015ED01F5F1E15C8F304C01E1537
:1004100010F4E11A01C0EE2404FF0EC080E390E066
:10042000B3014FD002FF1BC001FD03C088E790E07D
:100430000EC088E590E00BC0802F867881F001FF28
:1004400002C08BE201C080E2F7FC8DE290E0B301D4
:1004500038D005C080E390E0B30133D09A94D9142A
:10046000C8F3DA94F101ED0DF11D808190E0B30144
:1004700028D0DD20B1F705C080E290E0B30121D0A3
:10048000EA94EE20C9F750CEF30166817781CB0163
:100490002B96E2E1F8CAFC01059061507040011012
:1004A000D8F7809590958E0F9F1F0895FC0161509D
:1004B000704001900110D8F7809590958E0F9F1F86
:1004C00008950F931F93CF93DF938C01EB018B81E2
:1004D00081FF1BC082FF0DC02E813F818C819D81D9
:1004E0002817390764F4E881F9810193F983E883D7
:1004F00006C0E885F985802F0995892B31F48E8116
:100500009F8101969F838E8302C00FEF1FEFC8016A
:10051000DF91CF911F910F910895FA01AA272830FA
:1005200051F1203181F1E8946F936E7F6E5F7F4FC0
:100530008F4F9F4FAF4FB1E03ED0B4E03CD0670F3C
:10054000781F891F9A1FA11D680F791F8A1F911D8F
:10055000A11D6A0F711D811D911DA11D20D009F4DF
:1005600068943F912AE0269F11243019305D319321
:10057000DEF6CF010895462F4770405D4193B3E00A
:100580000FD0C9F7F6CF462F4F70405D4A3318F0B1
:10059000495D31FD4052419302D0A9F7EACFB4E062
:1005A000A6959795879577956795BA95C9F700971A
:1005B0006105710508959B01AC010A2E06945795BB
:1005C000479537952795BA95C9F7620F731F841F12
:1005D000951FA01D0895CF92DF92EF92FF920F9387
:1005E0001F937B018C01D0D82DB73EB728503040E7
:1005F0000FB6F8943EBF0FBE2DBFCDB6DEB6089441
:10060000C11CD11C2BE431E0EDB7FEB7328321834E
:1006100020E630E0F60133832283758364838827E4
:1006200077FD8095982FE3D89B01AC01C801B701F5
:1006300046D820E030E048EC52E465D9A5D8F60170
:100640007783668339DD2DB73EB7285F3F4F0FB6FE
:10065000F8943EBF0FBE2DBF1F910F91FF90EF90FA
:10066000DF90CF900895AAE2B1E0FD010190002053
:10067000E9F73197EA1BFB0BCD016E2FD6D3D0D310
:10068000089562E370E080E090E09ED60895CF92F6
:10069000DF92EF92FF920F931F9310924A019A9B61
:1006A00003C081E080934A0180914A01882309F4C4
:1006B0004FC02BD620916B0130916C0140916D01A0
:1006C00050916E01621B730B840B950B2091B60049
:1006D0003091B7004091B8005091B900621773078C
:1006E00084079507A8F111D660936B0170936C0194
:1006F00080936D0190936E012DB73EB72850304026
:100700000FB6F8943EBF0FBE2DBFEDB7FEB73196C2
:100710008AE291E0ADB7BEB712969C938E93119783
:1007200086E690E09383828382E091E095838483E0
:1007300080914A0186831782BFDC2DB73EB7285FC0
:100740003F4F0FB6F8943EBF0FBE2DBF8CDF8BDF3F
:1007500083E1A3D69093450180934401D6D520919F
:100760006F01309170014091710150917201621BD3
:10077000730B840B950B2091B2003091B300409124
:10078000B4005091B500621773078407950708F409
:1007900038C1BBD560936F01709370018093710174
:1007A0009093720183E791E06FE00FD56ADF80914B
:1007B000770190917801A0917901B0917A018093AD
:1007C0001E0190931F01A0932001B09321018091FD
:1007D000730190917401A0917501B091760180939D
:1007E000260190932701A0932801B093290149DFA6
:1007F00060911E0170911F01809120019091210153
:1008000026E636E646EE5FE37ED820E030E040E0C4
:1008100052E456D760932201709323018093240100
:100820009093250160911E0170911F01809120011C
:1008300090912101D0DE8DB79EB708970FB6F8943E
:100840009EBF0FBE8DBFEDB7FEB731969AE2C92E9F
:1008500091E0D92EADB7BEB71296DC92CE92119729
:100860008EE690E09383828382E0E82E81E0F82E8A
:10087000F582E4820BE411E0178306831DDC2DB7BB
:100880003EB7285F3F4F0FB6F8943EBF0FBE2DBF57
:10089000EADEE9DE6091220170912301809124015A
:1008A0009091250198DE8DB79EB708970FB6F89402
:1008B0009EBF0FBE8DBFEDB7FEB73196ADB7BEB7C9
:1008C0001296DC92CE92119786E790E09383828312
:1008D000F582E48217830683EFDB2DB73EB7285FEE
:1008E0003F4F0FB6F8943EBF0FBE2DBFBCDEBBDE40
:1008F0006091260170912701809128019091290132
:100900006ADE8DB79EB708970FB6F8949EBF0FBEEC
:100910008DBFEDB7FEB73196ADB7BEB71296DC927C
:10092000CE9211978EE790E093838283F582E482E2
:1009300017830683C1DB2DB73EB7285F3F4F0FB645
:10094000F8943EBF0FBE2DBF8EDE8DDE83E1A5D5B0
:100950009093450180934401ADB7BEB718970FB689
:10096000F894BEBF0FBEADBFEDB7FEB7319612967D
:10097000DC92CE92119726E830E033832283F58211
:10098000E4829783868398DB2DB73EB7285F3F4F7D
:100990000FB6F8943EBF0FBE2DBF65DE64DE109229
:1009A0004A019A9B03C081E080934A018DB79EB7AC
:1009B00008970FB6F8949EBF0FBE8DBFEDB7FEB778
:1009C00031968AE291E0ADB7BEB712969C938E93B2
:1009D000119786E690E09383828382E091E095838D
:1009E000848380914A018683178266DB2DB73EB7E8
:1009F000285F3F4F0FB6F8943EBF0FBE2DBF33DECA
:100A000032DE83E14AD590934501809344014997B2
:100A1000F4F480914A018823D1F08091670190918C
:100A20006801A0916901B0916A010097A105B10523
:100A300049F46BD4609367017093680180936901F6
:100A400090936A0181E0809348011092490180915E
:100A50004801882309F461C058D42091670130917E
:100A600068014091690150916A01621B730B840B0C
:100A7000950B2091AE003091AF004091B0005091A5
:100A8000B100621773078407950708F446C01092F7
:100A9000490180914601909147012091BA0030911F
:100AA000BB0082179307DCF4019690934701809373
:100AB00046012817390724F4309347012093460153
:100AC00060914601709147018BE000D51ED4609380
:100AD0006701709368018093690190936A01209186
:100AE0004601309147018091BA009091BB002817D0
:100AF00039079CF010926701109268011092690109
:100B000010926A011092480100D4609363017093BF
:100B10006401809365019093660180914901882367
:100B200009F44DC0F2D320916701309168014091E2
:100B3000690150916A01621B730B840B950B209124
:100B4000AE003091AF004091B0005091B1006217FB
:100B500073078407950798F1109248016091460148
:100B60007091470116161706CCF41092630110928B
:100B7000640110926501109266016150704070939B
:100B80004701609346018BE0A1D4BFD36093670116
:100B9000709368018093690190936A018091460186
:100BA000909147011816190654F01092670110929F
:100BB00068011092690110926A01109249018091B6
:100BC000630190916401A0916501B0916601009765
:100BD000A105B105A1F199D3209163013091640180
:100BE0004091650150916601621B730B840B950B5C
:100BF0002091AA003091AB004091AC005091AD0023
:100C00006217730784079507D0F080916701909170
:100C10006801A0916901B0916A010097A105B10531
:100C200049F473D3609367017093680180936901FD
:100C300090936A0181E080934901109248011F91CD
:100C40000F91FF90EF90DF90CF900895EF92FF9279
:100C50000F931F93CF93DF9383E160E06CD48FE019
:100C600060E069D480E160E066D48BE061E063D449
:100C70008CED95E0F7D164E670E080E090E0A4D3DD
:100C800060911C0170911D0187E891E000D2C82F8E
:100C9000D0E06091A6007091A70087E891E0F7D1BD
:100CA000E82EFF246091A8007091A90087E891E0E8
:100CB000EED1CF3FD105D9F18DB79EB708970FB6CA
:100CC000F8949EBF0FBE8DBFEDB7FEB731968AE296
:100CD00091E0ADB7BEB712969C938E9311978EE8B4
:100CE00090E09383828382E091E095838483D7832D
:100CF000C683E2D98DB79EB708960FB6F8949EBF0B
:100D00000FBE8DBFB0DCAFDCBE01882777FD8095BC
:100D1000982F28EE33E040E050E058D66093B200C0
:100D20007093B3008093B4009093B50016C0009107
:100D30001C0110911D016091B2007091B30080916F
:100D4000B4009091B50028EE33E040E050E05DD66D
:100D500087E891E0B801422FA1D19FEFE916F10495
:100D6000C9F1ADB7BEB718970FB6F894BEBF0FBEA6
:100D7000ADBFEDB7FEB731968AE291E012969C9333
:100D80008E9311978AE990E09383828382E091E0C9
:100D900095838483F782E6828FD98DB79EB70896B4
:100DA0000FB6F8949EBF0FBE8DBF5DDC5CDCB70153
:100DB000882777FD8095982F28EE33E040E050E0BB
:100DC00005D66093AA007093AB008093AC0090931B
:100DD000AD0016C00091A6001091A7006091AA0076
:100DE0007091AB008091AC009091AD0028EE33E0A3
:100DF00040E050E00AD687E891E0B801422F4ED19A
:100E000084D260936F01709370018093710190930D
:100E10007201DF91CF911F910F91FF90EF90089594
:100E2000809180018823E1F70895CF93DF93482FC5
:100E3000562F6C3110F080E0A7C08091800188238C
:100E4000E1F7A52FAD5F6FEF7FEF6A27062E629562
:100E5000607F6025072E762F62956F700626669557
:100E600076276727660F660F660F6025B0E0FD01E5
:100E700024E0F595E7952A95E1F7E55FFE4F80813F
:100E80008093C500AF70B070A55FBE4F8C9180930A
:100E9000C600C7ECD0E0242F392FC901DC0125C0E2
:100EA000EC916E27062E6295607F6025072E762FC7
:100EB00062956F700626669576276727660F660F20
:100EC000660F6025F0E084E0F595E7958A95E1F7F7
:100ED000E55FFE4F80818883ED91F0E0EF70F07068
:100EE000E55FFE4F8081898322968A2F841B8517B8
:100EF000B8F25F5F550F9B0120953095A52FB0E0AC
:100F0000AB53BF4FF90164E0F695E7956A95E1F7B9
:100F1000EF70F070E55FFE4F80818C93A52FAF5F7F
:100F20008A2F90E08B539F4FF901EF70F070E55FCF
:100F3000FE4F4081FC014083AF5F8A2F90E08B53CE
:100F40009F4FF901EF2FFF27E295EF70E55FFE4F0E
:100F50004081FC014083AF5FB0E0AB53BF4F232F14
:100F600033272F703070255F3E4FF90180818C93BD
:100F7000545F509383011092820110928601109267
:100F8000810181E080938001DF91CF91089580916C
:100F9000BC0060E00FD31092800108951F920F9261
:100FA0000FB60F9211242F933F934F935F936F933C
:100FB0007F938F939F93AF93BF93EF93FF93809112
:100FC00080018823C1F1809181018F5F809381012D
:100FD000815089F5E091820180918301E81758F0F2
:100FE000D6DF8091840190918501019690938501CF
:100FF0008093840120C08091BC009091860121E003
:1010000030E0092E02C0220F331F0A94E2F7F0E00D
:10101000E354FF4F608162239F5F90938601CAD2A1
:1010200080918601863038F010928601809182018D
:101030008F5F8093820180918101883010F010923F
:101040008101FF91EF91BF91AF919F918F917F911E
:101050006F915F914F913F912F910F900FBE0F9025
:101060001F9018959C0140E050E060E874E88EE124
:1010700090E0CBD41FBC89E08EBD3BBD2ABD89B7B3
:10108000806189BF8091BC0061E055D20895E199EB
:10109000FECF7FBB6EBBE09A8DB30895E199FECF82
:1010A0007FBB6EBB4DBB0FB6F894E29AE19A0FBEC0
:1010B00008958F929F92AF92BF92CF92DF92EF925C
:1010C000FF920F931F93CF93DF935C01D62EE42EF4
:1010D000FC0110861186128613861486862F61E025
:1010E0002AD28D2D60E066D2FF2400E010E0C80116
:1010F000B7016AD18D2D61E05DD288E290E03AD1EE
:101100008D2D60E018D2C0E9D1E002C0219721F115
:101110008D2D89D2892BD1F3C0E9D1E002C021976E
:10112000D9F08D2D80D20197D1F303C0219741F4DE
:1011300013C040E8C42E882438E2932EC0E9D1E0E1
:101140008D2D71D2892B91F3EED07B018C01C0E9FA
:10115000D1E005C0219719F42EEF3FEF28C08D2D67
:1011600062D20197B9F3DFD06E197F09800B910B22
:10117000693271058105910530F0F501E80DF11D29
:1011800080858C2980878C2D90E095958795C82E39
:10119000882319F4839480E8C82E9A9479F68D2DCB
:1011A00061E0C9D18D2D61E005D220E030E0C901B8
:1011B000DF91CF911F910F91FF90EF90DF90CF9033
:1011C000BF90AF909F908F9008950F931F93CF93F0
:1011D000DF93EC0141E06DDF8C01009769F080E066
:1011E00090ECA9E7B4EC88839983AA83BB838C83B2
:1011F0009D83AE83BF833BC08885698558D2A0E0BC
:10120000B0E0BC01CD01F1D22DEC3CEC4CEC5DE347
:101210007AD3688379838A839B838A858F776B856A
:1012200046D2A0E0B0E0BC01CD01DFD22DEC3CEC19
:101230004CEC5DE368D39B01AC016C837D838E83B2
:101240009F838A8587FF07C0DA01C901B0588C8364
:101250009D83AE83BF8389859885890F9A85890F81
:101260009B85890F9C85981711F00FEF1FEFC80120
:10127000DF91CF911F910F9108951F920F920FB69A
:101280000F9211242F933F938F939F93AF93BF930C
:1012900080918C0190918D01A0918E01B0918F0170
:1012A000309190010196A11DB11D232F2D5F2D3787
:1012B00020F02D570196A11DB11D20939001809320
:1012C0008C0190938D01A0938E01B0938F0180913A
:1012D000880190918901A0918A01B0918B010196BA
:1012E000A11DB11D8093880190938901A0938A016B
:1012F000B0938B01BF91AF919F918F913F912F91AF
:101300000F900FBE0F901F9018958FB7F8942091F3
:101310008C0130918D0140918E0150918F018FBFD2
:10132000B901CA0108959FB7F894209188013091BE
:10133000890140918A0150918B0182B708B600FE65
:1013400006C08F3F21F02F5F3F4F4F4F5F4F9FBF32
:10135000542F432F322F2227280F311D411D511D9D
:1013600082E0220F331F441F551F8A95D1F7B90120
:10137000CA010895019739F0880F991F880F991FA6
:1013800002970197F1F70895789483B7826083BF3D
:1013900083B7816083BF89B7816089BF1EBC8EB56A
:1013A00082608EBD8EB581608EBD8FB581608FBD30
:1013B00085B5846085BD85B5806485BD329A319AD6
:1013C000309A379A1AB80895EF92FF920F931F93AD
:1013D000CF93DF937B018C013FB7F8948091880114
:1013E00090918901A0918A01B0918B0122B708B632
:1013F00000FE05C02F3F19F00196A11DB11D3FBF92
:10140000BA2FA92F982F8827820F911DA11DB11DDA
:1014100052E0880F991FAA1FBB1F5A95D1F7EC0104
:1014200030C04CD13FB7F8948091880190918901E8
:10143000A0918A01B0918B0122B708B600FE05C0C9
:101440002F3F19F00196A11DB11D3FBFBA2FA92F43
:10145000982F8827820F911DA11DB11D32E0880FA2
:10146000991FAA1FBB1F3A95D1F78C1B9D0B885E55
:101470009340B8F20894E108F10801091109C85134
:10148000DC4FE114F1040105110559F6DF91CF910C
:101490001F910F91FF90EF900895982F8E3008F0D4
:1014A0009E509770809101018295880F880F807CF3
:1014B000892B87B9369A3699FECF24B145B1942F3E
:1014C00080E030E0282B392BC90108951F93CF937A
:1014D000DF93182FEB0161E02ED0209711F1CF3F61
:1014E000D10511F1E12FF0E0E459FF4F84918430F0
:1014F00051F0853071F0833089F48FB580688FBDED
:10150000DBBDCABD14C08FB580628FBDD9BDC8BD5B
:101510000EC085B5806285BDC3BD09C0C038D10588
:101520001CF4812F60E002C0812F61E043D0DF9185
:10153000CF911F910895CF93DF93482F50E0CA01B8
:10154000885A9F4FFC0134914C5B5F4FFA018491A4
:10155000882369F190E0880F991FFC01EA5DFF4F35
:10156000A591B491FC01E05DFF4FC591D491662334
:1015700051F42FB7F8948C91932F909589238C93E5
:10158000888189230BC0623061F42FB7F8948C9165
:10159000932F909589238C938881832B88832FBFE9
:1015A00006C09FB7F8948C91832B8C939FBFDF91DB
:1015B000CF910895482F50E0CA0184599F4FFC01F4
:1015C0002491CA01885A9F4FFC0194914C5B5F4F54
:1015D000FA013491332331F1222381F0243039F0A0
:1015E000253049F0233051F48FB58F7702C08FB585
:1015F0008F7D8FBD03C085B58F7D85BDE32FF0E066
:10160000EE0FFF1FE05DFF4FA591B4912FB7F89447
:10161000662321F48C919095892302C08C91892BAB
:101620008C932FBF0895682F70E0CB0184599F4F92
:10163000FC012491CB01885A9F4FFC0144916C5BC3
:101640007F4FFB019491992319F420E030E022C0F0
:10165000222381F0243039F0253049F0233051F431
:101660008FB58F7702C08FB58F7D8FBD03C085B5D5
:101670008F7D85BD892F90E0880F991F865C9F4FD5
:10168000FC01A591B4918C9120E030E0842311F00D
:1016900021E030E0C9010895CF93DF9375DED6DAFB
:1016A000C0E0D0E0F4D72097E9F3AAD4FBCF70E0F4
:1016B000382F20E0622B732BCB01089508955058EA
:1016C000BB27AA270ED0E5C0D6D030F0DBD020F063
:1016D00031F49F3F11F41EF4CBC00EF4E095E7FB0C
:1016E000C1C0E92FE7D080F3BA17620773078407F8
:1016F000950718F071F49EF5FFC00EF4E0950B2EDF
:10170000BA2FA02D0B01B90190010C01CA01A00153
:101710001124FF27591B99F0593F50F4503E68F1AE
:101720001A16F040A22F232F342F4427585FF3CFEF
:10173000469537952795A795F0405395C9F77EF4C0
:101740001F16BA0B620B730B840BBAF09150A1F009
:10175000FF0FBB1F661F771F881FC2F70EC0BA0F8F
:10176000621F731F841F48F4879577956795B79517
:10177000F7959E3F08F0B3CF9395880F08F099270F
:10178000EE0F97958795089504D06894B111B5C070
:10179000089598D088F09F5790F0B92F9927B751A6
:1017A000A0F0D1F0660F771F881F991F1AF0BA9525
:1017B000C9F712C0B13081F09FD0B1E008959CC04C
:1017C000672F782F8827B85F39F0B93FCCF386951B
:1017D00077956795B395D9F73EF490958095709578
:1017E00061957F4F8F4F9F4F0895E89409C097FBF5
:1017F0003EF490958095709561957F4F8F4F9F4FE8
:101800009923A9F0F92F96E9BB279395F69587952B
:1018100077956795B795F111F8CFFAF4BB0F11F4EE
:1018200060FF1BC06F5F7F4F8F4F9F4F16C0882395
:1018300011F096E911C0772321F09EE8872F762FCB
:1018400005C0662371F096E8862F70E060E02AF00C
:101850009A95660F771F881FDAF7880F96958795F8
:1018600097F9089597F99F6780E870E060E0089520
:101870009FEF80EC089500240A94161617061806A8
:101880000906089500240A94121613061406050684
:101890000895092E0394000C11F4882352F0BB0F15
:1018A00040F4BF2B11F460FF04C06F5F7F4F8F4F78
:1018B0009F4F089557FD9058440F551F59F05F3FB3
:1018C00071F04795880F97FB991F61F09F3F79F062
:1018D00087950895121613061406551FF2CF4695E4
:1018E000F1DF08C0161617061806991FF1CF869566
:1018F0007105610508940895E894BB27662777274A
:10190000CB0197F908950BD0C4CFB5DF28F0BADF2B
:1019100018F0952309F0A6CFABCF1124EECFCADF84
:10192000A0F3959FD1F3950F50E0551F629FF001F2
:10193000729FBB27F00DB11D639FAA27F00DB11D4B
:10194000AA1F649F6627B00DA11D661F829F2227D4
:10195000B00DA11D621F739FB00DA11D621F839F5B
:10196000A00D611D221F749F3327A00D611D231F31
:10197000849F600D211D822F762F6A2F11249F577F
:1019800050408AF0E1F088234AF0EE0FFF1FBB1FA2
:10199000661F771F881F91505040A9F79E3F510541
:1019A00070F060CFAACF5F3FECF3983EDCF38695F2
:1019B00077956795B795F795E7959F5FC1F7FE2BEC
:1019C000880F911D9695879597F90895629FD0018C
:1019D000739FF001829FE00DF11D649FE00DF11DEA
:1019E000929FF00D839FF00D749FF00D659FF00D99
:1019F0009927729FB00DE11DF91F639FB00DE11D86
:101A0000F91FBD01CF0111240895A1E21A2EAA1BCE
:101A1000BB1BFD010DC0AA1FBB1FEE1FFF1FA2179E
:101A2000B307E407F50720F0A21BB30BE40BF50B9B
:101A3000661F771F881F991F1A9469F76095709524
:101A4000809590959B01AC01BD01CF0108952F9227
:101A50003F924F925F926F927F928F929F92AF923E
:101A6000BF92CF92DF92EF92FF920F931F93CF938B
:101A7000DF93CDB7DEB7CA1BDB0B0FB6F894DEBF22
:101A80000FBECDBF09942A88398848885F846E8448
:101A90007D848C849B84AA84B984C884DF80EE8092
:101AA000FD800C811B81AA81B981CE0FD11D0FB69B
:101AB000F894DEBF0FBECDBFED010895F894FFCFBF
:101AC00025642E25640025733A4D3A25640025735C
:101AD0003A433A25730025733A463A257300257335
:101AE0003A483A25730025733A4C3A256400257329
:101AF0003A545844454C3A25640025733A4E4C44B8
:101B0000454C3A25640001000200983A0000140098
:101B1000000060EA0000D007000078000C2A2A2AA2
:101B20002A2A2A382C0000000000000000000000D3
:101B300000000000000000000000000000000000A5
:101B40000000000000000000000000000000000095
:101B50000000000000000000000000000000000085
:101B600000014F5554534944453A000D0E131516C4
:0C1B7000191A1C232526292A2C323400C7
:00000001FF
